{
    "_format": "hh-sol-artifact-1",
    "contractName": "Marketplace",
    "sourceName": "contracts/MarketPlace.sol",
    "abi": [
        {
            "inputs": [],
            "stateMutability": "payable",
            "type": "constructor"
        },
        {
            "anonymous": false,
            "inputs": [
                {
                    "indexed": true,
                    "internalType": "address",
                    "name": "owner",
                    "type": "address"
                },
                {
                    "indexed": true,
                    "internalType": "address",
                    "name": "approved",
                    "type": "address"
                },
                {
                    "indexed": true,
                    "internalType": "uint256",
                    "name": "tokenId",
                    "type": "uint256"
                }
            ],
            "name": "Approval",
            "type": "event"
        },
        {
            "anonymous": false,
            "inputs": [
                {
                    "indexed": true,
                    "internalType": "address",
                    "name": "owner",
                    "type": "address"
                },
                {
                    "indexed": true,
                    "internalType": "address",
                    "name": "operator",
                    "type": "address"
                },
                {
                    "indexed": false,
                    "internalType": "bool",
                    "name": "approved",
                    "type": "bool"
                }
            ],
            "name": "ApprovalForAll",
            "type": "event"
        },
        {
            "anonymous": false,
            "inputs": [
                {
                    "indexed": true,
                    "internalType": "uint256",
                    "name": "_id",
                    "type": "uint256"
                },
                {
                    "indexed": true,
                    "internalType": "address",
                    "name": "seller",
                    "type": "address"
                },
                {
                    "indexed": true,
                    "internalType": "uint256",
                    "name": "price",
                    "type": "uint256"
                }
            ],
            "name": "ItemCreated",
            "type": "event"
        },
        {
            "anonymous": false,
            "inputs": [
                {
                    "indexed": true,
                    "internalType": "uint256",
                    "name": "_id",
                    "type": "uint256"
                },
                {
                    "indexed": true,
                    "internalType": "address",
                    "name": "buyer",
                    "type": "address"
                },
                {
                    "indexed": true,
                    "internalType": "uint256",
                    "name": "amount",
                    "type": "uint256"
                }
            ],
            "name": "ItemSold",
            "type": "event"
        },
        {
            "anonymous": false,
            "inputs": [
                {
                    "indexed": false,
                    "internalType": "enum Marketplace.ShippingStatus",
                    "name": "ShippingStatus",
                    "type": "uint8"
                },
                {
                    "indexed": true,
                    "internalType": "uint256",
                    "name": "id",
                    "type": "uint256"
                },
                {
                    "indexed": true,
                    "internalType": "address",
                    "name": "seller",
                    "type": "address"
                },
                {
                    "indexed": true,
                    "internalType": "address",
                    "name": "buyer",
                    "type": "address"
                }
            ],
            "name": "OrderStatusUpdated",
            "type": "event"
        },
        {
            "anonymous": false,
            "inputs": [
                {
                    "indexed": true,
                    "internalType": "address",
                    "name": "previousOwner",
                    "type": "address"
                },
                {
                    "indexed": true,
                    "internalType": "address",
                    "name": "newOwner",
                    "type": "address"
                }
            ],
            "name": "OwnershipTransferred",
            "type": "event"
        },
        {
            "anonymous": false,
            "inputs": [
                {
                    "indexed": true,
                    "internalType": "uint256",
                    "name": "amount",
                    "type": "uint256"
                },
                {
                    "indexed": true,
                    "internalType": "address",
                    "name": "withdrawer",
                    "type": "address"
                }
            ],
            "name": "SellerWithdraw",
            "type": "event"
        },
        {
            "anonymous": false,
            "inputs": [
                {
                    "indexed": true,
                    "internalType": "address",
                    "name": "from",
                    "type": "address"
                },
                {
                    "indexed": true,
                    "internalType": "address",
                    "name": "to",
                    "type": "address"
                },
                {
                    "indexed": true,
                    "internalType": "uint256",
                    "name": "tokenId",
                    "type": "uint256"
                }
            ],
            "name": "Transfer",
            "type": "event"
        },
        {
            "inputs": [
                {
                    "internalType": "uint256",
                    "name": "_id",
                    "type": "uint256"
                },
                {
                    "internalType": "address",
                    "name": "seller",
                    "type": "address"
                }
            ],
            "name": "BuyItem",
            "outputs": [],
            "stateMutability": "payable",
            "type": "function"
        },
        {
            "inputs": [
                {
                    "internalType": "uint256",
                    "name": "sellPrice",
                    "type": "uint256"
                },
                {
                    "internalType": "string",
                    "name": "tokenUri",
                    "type": "string"
                }
            ],
            "name": "CreateItemToSell",
            "outputs": [],
            "stateMutability": "payable",
            "type": "function"
        },
        {
            "inputs": [],
            "name": "MarketplaceVaultAddress",
            "outputs": [
                {
                    "internalType": "address",
                    "name": "",
                    "type": "address"
                }
            ],
            "stateMutability": "view",
            "type": "function"
        },
        {
            "inputs": [
                {
                    "internalType": "uint256",
                    "name": "",
                    "type": "uint256"
                }
            ],
            "name": "SoldStatus",
            "outputs": [
                {
                    "internalType": "bool",
                    "name": "",
                    "type": "bool"
                }
            ],
            "stateMutability": "view",
            "type": "function"
        },
        {
            "inputs": [
                {
                    "internalType": "address",
                    "name": "to",
                    "type": "address"
                },
                {
                    "internalType": "uint256",
                    "name": "tokenId",
                    "type": "uint256"
                }
            ],
            "name": "approve",
            "outputs": [],
            "stateMutability": "nonpayable",
            "type": "function"
        },
        {
            "inputs": [
                {
                    "internalType": "address",
                    "name": "owner",
                    "type": "address"
                }
            ],
            "name": "balanceOf",
            "outputs": [
                {
                    "internalType": "uint256",
                    "name": "",
                    "type": "uint256"
                }
            ],
            "stateMutability": "view",
            "type": "function"
        },
        {
            "inputs": [
                {
                    "internalType": "address",
                    "name": "",
                    "type": "address"
                }
            ],
            "name": "balanceUser",
            "outputs": [
                {
                    "internalType": "uint256",
                    "name": "",
                    "type": "uint256"
                }
            ],
            "stateMutability": "view",
            "type": "function"
        },
        {
            "inputs": [
                {
                    "internalType": "uint256",
                    "name": "",
                    "type": "uint256"
                }
            ],
            "name": "buyerOfId",
            "outputs": [
                {
                    "internalType": "address",
                    "name": "",
                    "type": "address"
                }
            ],
            "stateMutability": "view",
            "type": "function"
        },
        {
            "inputs": [],
            "name": "currentId",
            "outputs": [
                {
                    "internalType": "uint256",
                    "name": "",
                    "type": "uint256"
                }
            ],
            "stateMutability": "view",
            "type": "function"
        },
        {
            "inputs": [
                {
                    "internalType": "uint256",
                    "name": "_id",
                    "type": "uint256"
                }
            ],
            "name": "finalizeOrder",
            "outputs": [],
            "stateMutability": "nonpayable",
            "type": "function"
        },
        {
            "inputs": [
                {
                    "internalType": "uint256",
                    "name": "_id",
                    "type": "uint256"
                }
            ],
            "name": "forIdGetSellerAndPrice",
            "outputs": [
                {
                    "internalType": "address",
                    "name": "",
                    "type": "address"
                },
                {
                    "internalType": "uint256",
                    "name": "",
                    "type": "uint256"
                }
            ],
            "stateMutability": "view",
            "type": "function"
        },
        {
            "inputs": [
                {
                    "internalType": "uint256",
                    "name": "tokenId",
                    "type": "uint256"
                }
            ],
            "name": "getApproved",
            "outputs": [
                {
                    "internalType": "address",
                    "name": "",
                    "type": "address"
                }
            ],
            "stateMutability": "view",
            "type": "function"
        },
        {
            "inputs": [
                {
                    "internalType": "address",
                    "name": "seller",
                    "type": "address"
                },
                {
                    "internalType": "uint256",
                    "name": "_id",
                    "type": "uint256"
                }
            ],
            "name": "getSalePrice",
            "outputs": [
                {
                    "internalType": "uint256",
                    "name": "",
                    "type": "uint256"
                }
            ],
            "stateMutability": "view",
            "type": "function"
        },
        {
            "inputs": [
                {
                    "internalType": "uint256",
                    "name": "_id",
                    "type": "uint256"
                }
            ],
            "name": "getShipmentStatusForId",
            "outputs": [
                {
                    "internalType": "enum Marketplace.ShippingStatus",
                    "name": "shippingStatus",
                    "type": "uint8"
                }
            ],
            "stateMutability": "view",
            "type": "function"
        },
        {
            "inputs": [
                {
                    "internalType": "address",
                    "name": "user",
                    "type": "address"
                }
            ],
            "name": "getUserBalance",
            "outputs": [
                {
                    "internalType": "uint256",
                    "name": "",
                    "type": "uint256"
                }
            ],
            "stateMutability": "view",
            "type": "function"
        },
        {
            "inputs": [
                {
                    "internalType": "address",
                    "name": "owner",
                    "type": "address"
                },
                {
                    "internalType": "address",
                    "name": "operator",
                    "type": "address"
                }
            ],
            "name": "isApprovedForAll",
            "outputs": [
                {
                    "internalType": "bool",
                    "name": "",
                    "type": "bool"
                }
            ],
            "stateMutability": "view",
            "type": "function"
        },
        {
            "inputs": [],
            "name": "name",
            "outputs": [
                {
                    "internalType": "string",
                    "name": "",
                    "type": "string"
                }
            ],
            "stateMutability": "view",
            "type": "function"
        },
        {
            "inputs": [
                {
                    "internalType": "uint256",
                    "name": "",
                    "type": "uint256"
                }
            ],
            "name": "orderStatus",
            "outputs": [
                {
                    "internalType": "enum Marketplace.ShippingStatus",
                    "name": "",
                    "type": "uint8"
                }
            ],
            "stateMutability": "view",
            "type": "function"
        },
        {
            "inputs": [],
            "name": "owner",
            "outputs": [
                {
                    "internalType": "address",
                    "name": "",
                    "type": "address"
                }
            ],
            "stateMutability": "view",
            "type": "function"
        },
        {
            "inputs": [
                {
                    "internalType": "uint256",
                    "name": "tokenId",
                    "type": "uint256"
                }
            ],
            "name": "ownerOf",
            "outputs": [
                {
                    "internalType": "address",
                    "name": "",
                    "type": "address"
                }
            ],
            "stateMutability": "view",
            "type": "function"
        },
        {
            "inputs": [],
            "name": "renounceOwnership",
            "outputs": [],
            "stateMutability": "nonpayable",
            "type": "function"
        },
        {
            "inputs": [
                {
                    "internalType": "address",
                    "name": "from",
                    "type": "address"
                },
                {
                    "internalType": "address",
                    "name": "to",
                    "type": "address"
                },
                {
                    "internalType": "uint256",
                    "name": "tokenId",
                    "type": "uint256"
                }
            ],
            "name": "safeTransferFrom",
            "outputs": [],
            "stateMutability": "nonpayable",
            "type": "function"
        },
        {
            "inputs": [
                {
                    "internalType": "address",
                    "name": "from",
                    "type": "address"
                },
                {
                    "internalType": "address",
                    "name": "to",
                    "type": "address"
                },
                {
                    "internalType": "uint256",
                    "name": "tokenId",
                    "type": "uint256"
                },
                {
                    "internalType": "bytes",
                    "name": "data",
                    "type": "bytes"
                }
            ],
            "name": "safeTransferFrom",
            "outputs": [],
            "stateMutability": "nonpayable",
            "type": "function"
        },
        {
            "inputs": [
                {
                    "internalType": "uint256",
                    "name": "",
                    "type": "uint256"
                }
            ],
            "name": "sellers",
            "outputs": [
                {
                    "internalType": "address",
                    "name": "",
                    "type": "address"
                }
            ],
            "stateMutability": "view",
            "type": "function"
        },
        {
            "inputs": [
                {
                    "internalType": "address",
                    "name": "operator",
                    "type": "address"
                },
                {
                    "internalType": "bool",
                    "name": "approved",
                    "type": "bool"
                }
            ],
            "name": "setApprovalForAll",
            "outputs": [],
            "stateMutability": "nonpayable",
            "type": "function"
        },
        {
            "inputs": [
                {
                    "internalType": "bytes4",
                    "name": "interfaceId",
                    "type": "bytes4"
                }
            ],
            "name": "supportsInterface",
            "outputs": [
                {
                    "internalType": "bool",
                    "name": "",
                    "type": "bool"
                }
            ],
            "stateMutability": "view",
            "type": "function"
        },
        {
            "inputs": [],
            "name": "symbol",
            "outputs": [
                {
                    "internalType": "string",
                    "name": "",
                    "type": "string"
                }
            ],
            "stateMutability": "view",
            "type": "function"
        },
        {
            "inputs": [
                {
                    "internalType": "uint256",
                    "name": "tokenId",
                    "type": "uint256"
                }
            ],
            "name": "tokenURI",
            "outputs": [
                {
                    "internalType": "string",
                    "name": "",
                    "type": "string"
                }
            ],
            "stateMutability": "view",
            "type": "function"
        },
        {
            "inputs": [
                {
                    "internalType": "address",
                    "name": "from",
                    "type": "address"
                },
                {
                    "internalType": "address",
                    "name": "to",
                    "type": "address"
                },
                {
                    "internalType": "uint256",
                    "name": "tokenId",
                    "type": "uint256"
                }
            ],
            "name": "transferFrom",
            "outputs": [],
            "stateMutability": "nonpayable",
            "type": "function"
        },
        {
            "inputs": [
                {
                    "internalType": "address",
                    "name": "newOwner",
                    "type": "address"
                }
            ],
            "name": "transferOwnership",
            "outputs": [],
            "stateMutability": "nonpayable",
            "type": "function"
        },
        {
            "inputs": [
                {
                    "internalType": "uint256",
                    "name": "_id",
                    "type": "uint256"
                }
            ],
            "name": "updateShipmentStatus",
            "outputs": [],
            "stateMutability": "nonpayable",
            "type": "function"
        },
        {
            "inputs": [
                {
                    "internalType": "address",
                    "name": "",
                    "type": "address"
                },
                {
                    "internalType": "uint256",
                    "name": "",
                    "type": "uint256"
                }
            ],
            "name": "userInventory",
            "outputs": [
                {
                    "internalType": "uint256",
                    "name": "",
                    "type": "uint256"
                }
            ],
            "stateMutability": "view",
            "type": "function"
        },
        {
            "inputs": [],
            "name": "withDrawMarketplace",
            "outputs": [],
            "stateMutability": "nonpayable",
            "type": "function"
        },
        {
            "inputs": [],
            "name": "withDrawSeller",
            "outputs": [],
            "stateMutability": "payable",
            "type": "function"
        }
    ],
    "bytecode": "0x60806040526040518060400160405280600b81526020017f4d61726b6574706c6163650000000000000000000000000000000000000000008152506040518060400160405280600281526020017f4d4b00000000000000000000000000000000000000000000000000000000000081525081600090805190602001906200008892919062000198565b508060019080519060200190620000a192919062000198565b505050620000c4620000b8620000ca60201b60201c565b620000d260201b60201c565b620002ad565b600033905090565b6000600760009054906101000a900473ffffffffffffffffffffffffffffffffffffffff16905081600760006101000a81548173ffffffffffffffffffffffffffffffffffffffff021916908373ffffffffffffffffffffffffffffffffffffffff1602179055508173ffffffffffffffffffffffffffffffffffffffff168173ffffffffffffffffffffffffffffffffffffffff167f8be0079c531659141344cd1fd0a4f28419497f9722a3daafe3b4186f6b6457e060405160405180910390a35050565b828054620001a69062000248565b90600052602060002090601f016020900481019282620001ca576000855562000216565b82601f10620001e557805160ff191683800117855562000216565b8280016001018555821562000216579182015b8281111562000215578251825591602001919060010190620001f8565b5b50905062000225919062000229565b5090565b5b80821115620002445760008160009055506001016200022a565b5090565b600060028204905060018216806200026157607f821691505b602082108114156200027857620002776200027e565b5b50919050565b7f4e487b7100000000000000000000000000000000000000000000000000000000600052602260045260246000fd5b61449680620002bd6000396000f3fe6080604052600436106101f95760003560e01c80638da5cb5b1161010d578063c87b56dd116100a0578063e00dd1611161006f578063e00dd16114610765578063e985e9c514610790578063f2fde38b146107cd578063f5eb8890146107f6578063f9d5aa2c14610833576101f9565b8063c87b56dd146106b8578063cee26ed5146106f5578063d160d9fa14610732578063d866ed5d1461075b576101f9565b8063b63d7c04116100dc578063b63d7c04146105d8578063b88d4fde14610615578063b925ba351461063e578063bff494501461067b576101f9565b80638da5cb5b1461051c57806395d89b4114610547578063a0ec238914610572578063a22cb465146105af576101f9565b80633b389fd4116101905780635c0529a31161015f5780635c0529a3146104375780636352211e1461047457806370a08231146104b1578063715018a6146104ee57806376d3787c14610505576101f9565b80633b389fd41461037757806342842e0e1461039357806347734892146103bc57806356bcca72146103f9576101f9565b8063095ea7b3116101cc578063095ea7b3146102e0578063139f89bc1461030957806323b872dd1461033257806327a045831461035b576101f9565b806301cded58146101fe57806301ffc9a71461023b57806306fdde0314610278578063081812fc146102a3575b600080fd5b34801561020a57600080fd5b5061022560048036038101906102209190613239565b61085e565b60405161023291906137db565b60405180910390f35b34801561024757600080fd5b50610262600480360381019061025d91906131df565b610888565b60405161026f91906137c0565b60405180910390f35b34801561028457600080fd5b5061028d61096a565b60405161029a91906137f6565b60405180910390f35b3480156102af57600080fd5b506102ca60048036038101906102c59190613239565b6109fc565b6040516102d791906136f9565b60405180910390f35b3480156102ec57600080fd5b506103076004803603810190610302919061319f565b610a42565b005b34801561031557600080fd5b50610330600480360381019061032b9190613239565b610b5a565b005b34801561033e57600080fd5b5061035960048036038101906103549190613089565b610cc6565b005b610375600480360381019061037091906132a6565b610d26565b005b610391600480360381019061038c9190613266565b610ed8565b005b34801561039f57600080fd5b506103ba60048036038101906103b59190613089565b6111a8565b005b3480156103c857600080fd5b506103e360048036038101906103de919061301c565b6111c8565b6040516103f09190613a98565b60405180910390f35b34801561040557600080fd5b50610420600480360381019061041b9190613239565b611216565b60405161042e929190613797565b60405180910390f35b34801561044357600080fd5b5061045e6004803603810190610459919061319f565b611331565b60405161046b9190613a98565b60405180910390f35b34801561048057600080fd5b5061049b60048036038101906104969190613239565b611356565b6040516104a891906136f9565b60405180910390f35b3480156104bd57600080fd5b506104d860048036038101906104d3919061301c565b6113dd565b6040516104e59190613a98565b60405180910390f35b3480156104fa57600080fd5b50610503611495565b005b34801561051157600080fd5b5061051a6114a9565b005b34801561052857600080fd5b5061053161157d565b60405161053e91906136f9565b60405180910390f35b34801561055357600080fd5b5061055c6115a7565b60405161056991906137f6565b60405180910390f35b34801561057e57600080fd5b5061059960048036038101906105949190613239565b611639565b6040516105a691906136f9565b60405180910390f35b3480156105bb57600080fd5b506105d660048036038101906105d1919061315f565b61166c565b005b3480156105e457600080fd5b506105ff60048036038101906105fa9190613239565b611682565b60405161060c91906137c0565b60405180910390f35b34801561062157600080fd5b5061063c600480360381019061063791906130dc565b6116a2565b005b34801561064a57600080fd5b506106656004803603810190610660919061319f565b611704565b6040516106729190613a98565b60405180910390f35b34801561068757600080fd5b506106a2600480360381019061069d9190613239565b611764565b6040516106af91906137db565b60405180910390f35b3480156106c457600080fd5b506106df60048036038101906106da9190613239565b611784565b6040516106ec91906137f6565b60405180910390f35b34801561070157600080fd5b5061071c60048036038101906107179190613239565b611796565b60405161072991906136f9565b60405180910390f35b34801561073e57600080fd5b5061075960048036038101906107549190613239565b6117d5565b005b610763611941565b005b34801561077157600080fd5b5061077a611b1d565b6040516107879190613a98565b60405180910390f35b34801561079c57600080fd5b506107b760048036038101906107b29190613049565b611b23565b6040516107c491906137c0565b60405180910390f35b3480156107d957600080fd5b506107f460048036038101906107ef919061301c565b611bb7565b005b34801561080257600080fd5b5061081d6004803603810190610818919061301c565b611c3b565b60405161082a9190613a98565b60405180910390f35b34801561083f57600080fd5b50610848611c53565b60405161085591906136f9565b60405180910390f35b6000600a600083815260200190815260200160002060009054906101000a900460ff169050919050565b60007f80ac58cd000000000000000000000000000000000000000000000000000000007bffffffffffffffffffffffffffffffffffffffffffffffffffffffff1916827bffffffffffffffffffffffffffffffffffffffffffffffffffffffff1916148061095357507f5b5e139f000000000000000000000000000000000000000000000000000000007bffffffffffffffffffffffffffffffffffffffffffffffffffffffff1916827bffffffffffffffffffffffffffffffffffffffffffffffffffffffff1916145b80610963575061096282611c6b565b5b9050919050565b60606000805461097990613d78565b80601f01602080910402602001604051908101604052809291908181526020018280546109a590613d78565b80156109f25780601f106109c7576101008083540402835291602001916109f2565b820191906000526020600020905b8154815290600101906020018083116109d557829003601f168201915b5050505050905090565b6000610a0782611cd5565b6004600083815260200190815260200160002060009054906101000a900473ffffffffffffffffffffffffffffffffffffffff169050919050565b6000610a4d82611356565b90508073ffffffffffffffffffffffffffffffffffffffff168373ffffffffffffffffffffffffffffffffffffffff161415610abe576040517f08c379a0000000000000000000000000000000000000000000000000000000008152600401610ab590613a38565b60405180910390fd5b8073ffffffffffffffffffffffffffffffffffffffff16610add611d20565b73ffffffffffffffffffffffffffffffffffffffff161480610b0c5750610b0b81610b06611d20565b611b23565b5b610b4b576040517f08c379a0000000000000000000000000000000000000000000000000000000008152600401610b4290613a78565b60405180910390fd5b610b558383611d28565b505050565b6000600960003373ffffffffffffffffffffffffffffffffffffffff1673ffffffffffffffffffffffffffffffffffffffff16815260200190815260200160002060008381526020019081526020016000205411610bed576040517f08c379a0000000000000000000000000000000000000000000000000000000008152600401610be490613a58565b60405180910390fd5b6002600a600083815260200190815260200160002060006101000a81548160ff02191690836003811115610c2457610c23613e82565b5b0217905550600c600082815260200190815260200160002060009054906101000a900473ffffffffffffffffffffffffffffffffffffffff1673ffffffffffffffffffffffffffffffffffffffff163373ffffffffffffffffffffffffffffffffffffffff16827f71e966e4100290416d630e5a8c083dfb01a01cbca0c09cfc5edf2f5aac0fd7c86002604051610cbb91906137db565b60405180910390a450565b610cd7610cd1611d20565b82611de1565b610d16576040517f08c379a0000000000000000000000000000000000000000000000000000000008152600401610d0d90613818565b60405180910390fd5b610d21838383611e76565b505050565b6000821415610d6a576040517f08c379a0000000000000000000000000000000000000000000000000000000008152600401610d61906138d8565b60405180910390fd5b610d7530600161166c565b60086000815480929190610d8890613ddb565b919050555081600960003373ffffffffffffffffffffffffffffffffffffffff1673ffffffffffffffffffffffffffffffffffffffff1681526020019081526020016000206000600854815260200190815260200160002081905550610df033600854612170565b600e339080600181540180825580915050600190039060005260206000200160009091909190916101000a81548173ffffffffffffffffffffffffffffffffffffffff021916908373ffffffffffffffffffffffffffffffffffffffff1602179055506000600d6000600854815260200190815260200160002060006101000a81548160ff021916908315150217905550610e8d6008548261238e565b813373ffffffffffffffffffffffffffffffffffffffff166008547f9b8c4b5bf2f39369bee0a581bf2e28b1c1df1982925a012ff839ee598d142cdd60405160405180910390a45050565b600960008273ffffffffffffffffffffffffffffffffffffffff1673ffffffffffffffffffffffffffffffffffffffff1681526020019081526020016000206000838152602001908152602001600020543414610f6a576040517f08c379a0000000000000000000000000000000000000000000000000000000008152600401610f61906139b8565b60405180910390fd5b8073ffffffffffffffffffffffffffffffffffffffff16610f8a83611356565b73ffffffffffffffffffffffffffffffffffffffff1614610fe0576040517f08c379a0000000000000000000000000000000000000000000000000000000008152600401610fd7906138f8565b60405180910390fd5b3073ffffffffffffffffffffffffffffffffffffffff166342842e0e8233856040518463ffffffff1660e01b815260040161101d93929190613714565b600060405180830381600087803b15801561103757600080fd5b505af115801561104b573d6000803e3d6000fd5b505050506001600a600084815260200190815260200160002060006101000a81548160ff0219169083600381111561108657611085613e82565b5b021790555034600b60008373ffffffffffffffffffffffffffffffffffffffff1673ffffffffffffffffffffffffffffffffffffffff16815260200190815260200160002060008282546110da9190613b88565b9250508190555033600c600084815260200190815260200160002060006101000a81548173ffffffffffffffffffffffffffffffffffffffff021916908373ffffffffffffffffffffffffffffffffffffffff1602179055506001600d600084815260200190815260200160002060006101000a81548160ff021916908315150217905550343373ffffffffffffffffffffffffffffffffffffffff16837fa574c741071bb18f51fa88c17aeefec514bebf670ca22a3736fba6504ecbb76360405160405180910390a45050565b6111c3838383604051806020016040528060008152506116a2565b505050565b600080600b60008473ffffffffffffffffffffffffffffffffffffffff1673ffffffffffffffffffffffffffffffffffffffff16815260200190815260200160002054905080915050919050565b6000806000600e80549050905060005b81811161132957600060096000600e848154811061124757611246613ee0565b5b9060005260206000200160009054906101000a900473ffffffffffffffffffffffffffffffffffffffff1673ffffffffffffffffffffffffffffffffffffffff1673ffffffffffffffffffffffffffffffffffffffff1681526020019081526020016000206000878152602001908152602001600020549050600081111561131557600e82815481106112dd576112dc613ee0565b5b9060005260206000200160009054906101000a900473ffffffffffffffffffffffffffffffffffffffff16819450945050505061132c565b50808061132190613ddb565b915050611226565b50505b915091565b6009602052816000526040600020602052806000526040600020600091509150505481565b60008061136283612402565b9050600073ffffffffffffffffffffffffffffffffffffffff168173ffffffffffffffffffffffffffffffffffffffff1614156113d4576040517f08c379a00000000000000000000000000000000000000000000000000000000081526004016113cb90613a18565b60405180910390fd5b80915050919050565b60008073ffffffffffffffffffffffffffffffffffffffff168273ffffffffffffffffffffffffffffffffffffffff16141561144e576040517f08c379a000000000000000000000000000000000000000000000000000000000815260040161144590613978565b60405180910390fd5b600360008373ffffffffffffffffffffffffffffffffffffffff1673ffffffffffffffffffffffffffffffffffffffff168152602001908152602001600020549050919050565b61149d61243f565b6114a760006124bd565b565b6114b161243f565b600047905060008073909957dcc1b114fe262f4779e6aed4d034d96b0f73ffffffffffffffffffffffffffffffffffffffff16836040516114f1906136e4565b60006040518083038185875af1925050503d806000811461152e576040519150601f19603f3d011682016040523d82523d6000602084013e611533565b606091505b509150915081611578576040517f08c379a000000000000000000000000000000000000000000000000000000000815260040161156f90613918565b60405180910390fd5b505050565b6000600760009054906101000a900473ffffffffffffffffffffffffffffffffffffffff16905090565b6060600180546115b690613d78565b80601f01602080910402602001604051908101604052809291908181526020018280546115e290613d78565b801561162f5780601f106116045761010080835404028352916020019161162f565b820191906000526020600020905b81548152906001019060200180831161161257829003601f168201915b5050505050905090565b600c6020528060005260406000206000915054906101000a900473ffffffffffffffffffffffffffffffffffffffff1681565b61167e611677611d20565b8383612583565b5050565b600d6020528060005260406000206000915054906101000a900460ff1681565b6116b36116ad611d20565b83611de1565b6116f2576040517f08c379a00000000000000000000000000000000000000000000000000000000081526004016116e990613818565b60405180910390fd5b6116fe848484846126f0565b50505050565b600080600960008573ffffffffffffffffffffffffffffffffffffffff1673ffffffffffffffffffffffffffffffffffffffff16815260200190815260200160002060008481526020019081526020016000205490508091505092915050565b600a6020528060005260406000206000915054906101000a900460ff1681565b606061178f8261274c565b9050919050565b600e81815481106117a657600080fd5b906000526020600020016000915054906101000a900473ffffffffffffffffffffffffffffffffffffffff1681565b6000600960003373ffffffffffffffffffffffffffffffffffffffff1673ffffffffffffffffffffffffffffffffffffffff16815260200190815260200160002060008381526020019081526020016000205411611868576040517f08c379a000000000000000000000000000000000000000000000000000000000815260040161185f90613a58565b60405180910390fd5b6003600a600083815260200190815260200160002060006101000a81548160ff0219169083600381111561189f5761189e613e82565b5b0217905550600c600082815260200190815260200160002060009054906101000a900473ffffffffffffffffffffffffffffffffffffffff1673ffffffffffffffffffffffffffffffffffffffff163373ffffffffffffffffffffffffffffffffffffffff16827f71e966e4100290416d630e5a8c083dfb01a01cbca0c09cfc5edf2f5aac0fd7c8600360405161193691906137db565b60405180910390a450565b6000600b60003373ffffffffffffffffffffffffffffffffffffffff1673ffffffffffffffffffffffffffffffffffffffff16815260200190815260200160002054116119c3576040517f08c379a00000000000000000000000000000000000000000000000000000000081526004016119ba906138b8565b60405180910390fd5b6000600b60003373ffffffffffffffffffffffffffffffffffffffff1673ffffffffffffffffffffffffffffffffffffffff1681526020019081526020016000205490506000606482611a169190613bde565b90506000600b60003373ffffffffffffffffffffffffffffffffffffffff1673ffffffffffffffffffffffffffffffffffffffff168152602001908152602001600020819055506000803373ffffffffffffffffffffffffffffffffffffffff16605f84611a849190613c0f565b604051611a90906136e4565b60006040518083038185875af1925050503d8060008114611acd576040519150601f19603f3d011682016040523d82523d6000602084013e611ad2565b606091505b509150915081611b17576040517f08c379a0000000000000000000000000000000000000000000000000000000008152600401611b0e90613918565b60405180910390fd5b50505050565b60085481565b6000600560008473ffffffffffffffffffffffffffffffffffffffff1673ffffffffffffffffffffffffffffffffffffffff16815260200190815260200160002060008373ffffffffffffffffffffffffffffffffffffffff1673ffffffffffffffffffffffffffffffffffffffff16815260200190815260200160002060009054906101000a900460ff16905092915050565b611bbf61243f565b600073ffffffffffffffffffffffffffffffffffffffff168173ffffffffffffffffffffffffffffffffffffffff161415611c2f576040517f08c379a0000000000000000000000000000000000000000000000000000000008152600401611c2690613858565b60405180910390fd5b611c38816124bd565b50565b600b6020528060005260406000206000915090505481565b73909957dcc1b114fe262f4779e6aed4d034d96b0f81565b60007f01ffc9a7000000000000000000000000000000000000000000000000000000007bffffffffffffffffffffffffffffffffffffffffffffffffffffffff1916827bffffffffffffffffffffffffffffffffffffffffffffffffffffffff1916149050919050565b611cde8161285f565b611d1d576040517f08c379a0000000000000000000000000000000000000000000000000000000008152600401611d1490613a18565b60405180910390fd5b50565b600033905090565b816004600083815260200190815260200160002060006101000a81548173ffffffffffffffffffffffffffffffffffffffff021916908373ffffffffffffffffffffffffffffffffffffffff160217905550808273ffffffffffffffffffffffffffffffffffffffff16611d9b83611356565b73ffffffffffffffffffffffffffffffffffffffff167f8c5be1e5ebec7d5bd14f71427d1e84f3dd0314c0f7b2291e5b200ac8c7c3b92560405160405180910390a45050565b600080611ded83611356565b90508073ffffffffffffffffffffffffffffffffffffffff168473ffffffffffffffffffffffffffffffffffffffff161480611e2f5750611e2e8185611b23565b5b80611e6d57508373ffffffffffffffffffffffffffffffffffffffff16611e55846109fc565b73ffffffffffffffffffffffffffffffffffffffff16145b91505092915050565b8273ffffffffffffffffffffffffffffffffffffffff16611e9682611356565b73ffffffffffffffffffffffffffffffffffffffff1614611eec576040517f08c379a0000000000000000000000000000000000000000000000000000000008152600401611ee390613878565b60405180910390fd5b600073ffffffffffffffffffffffffffffffffffffffff168273ffffffffffffffffffffffffffffffffffffffff161415611f5c576040517f08c379a0000000000000000000000000000000000000000000000000000000008152600401611f5390613938565b60405180910390fd5b611f6983838360016128a0565b8273ffffffffffffffffffffffffffffffffffffffff16611f8982611356565b73ffffffffffffffffffffffffffffffffffffffff1614611fdf576040517f08c379a0000000000000000000000000000000000000000000000000000000008152600401611fd690613878565b60405180910390fd5b6004600082815260200190815260200160002060006101000a81549073ffffffffffffffffffffffffffffffffffffffff02191690556001600360008573ffffffffffffffffffffffffffffffffffffffff1673ffffffffffffffffffffffffffffffffffffffff168152602001908152602001600020600082825403925050819055506001600360008473ffffffffffffffffffffffffffffffffffffffff1673ffffffffffffffffffffffffffffffffffffffff16815260200190815260200160002060008282540192505081905550816002600083815260200190815260200160002060006101000a81548173ffffffffffffffffffffffffffffffffffffffff021916908373ffffffffffffffffffffffffffffffffffffffff160217905550808273ffffffffffffffffffffffffffffffffffffffff168473ffffffffffffffffffffffffffffffffffffffff167fddf252ad1be2c89b69c2b068fc378daa952ba7f163c4a11628f55a4df523b3ef60405160405180910390a461216b83838360016129c6565b505050565b600073ffffffffffffffffffffffffffffffffffffffff168273ffffffffffffffffffffffffffffffffffffffff1614156121e0576040517f08c379a00000000000000000000000000000000000000000000000000000000081526004016121d7906139d8565b60405180910390fd5b6121e98161285f565b15612229576040517f08c379a000000000000000000000000000000000000000000000000000000000815260040161222090613898565b60405180910390fd5b6122376000838360016128a0565b6122408161285f565b15612280576040517f08c379a000000000000000000000000000000000000000000000000000000000815260040161227790613898565b60405180910390fd5b6001600360008473ffffffffffffffffffffffffffffffffffffffff1673ffffffffffffffffffffffffffffffffffffffff16815260200190815260200160002060008282540192505081905550816002600083815260200190815260200160002060006101000a81548173ffffffffffffffffffffffffffffffffffffffff021916908373ffffffffffffffffffffffffffffffffffffffff160217905550808273ffffffffffffffffffffffffffffffffffffffff16600073ffffffffffffffffffffffffffffffffffffffff167fddf252ad1be2c89b69c2b068fc378daa952ba7f163c4a11628f55a4df523b3ef60405160405180910390a461238a6000838360016129c6565b5050565b6123978261285f565b6123d6576040517f08c379a00000000000000000000000000000000000000000000000000000000081526004016123cd90613998565b60405180910390fd5b806006600084815260200190815260200160002090805190602001906123fd929190612e30565b505050565b60006002600083815260200190815260200160002060009054906101000a900473ffffffffffffffffffffffffffffffffffffffff169050919050565b612447611d20565b73ffffffffffffffffffffffffffffffffffffffff1661246561157d565b73ffffffffffffffffffffffffffffffffffffffff16146124bb576040517f08c379a00000000000000000000000000000000000000000000000000000000081526004016124b2906139f8565b60405180910390fd5b565b6000600760009054906101000a900473ffffffffffffffffffffffffffffffffffffffff16905081600760006101000a81548173ffffffffffffffffffffffffffffffffffffffff021916908373ffffffffffffffffffffffffffffffffffffffff1602179055508173ffffffffffffffffffffffffffffffffffffffff168173ffffffffffffffffffffffffffffffffffffffff167f8be0079c531659141344cd1fd0a4f28419497f9722a3daafe3b4186f6b6457e060405160405180910390a35050565b8173ffffffffffffffffffffffffffffffffffffffff168373ffffffffffffffffffffffffffffffffffffffff1614156125f2576040517f08c379a00000000000000000000000000000000000000000000000000000000081526004016125e990613958565b60405180910390fd5b80600560008573ffffffffffffffffffffffffffffffffffffffff1673ffffffffffffffffffffffffffffffffffffffff16815260200190815260200160002060008473ffffffffffffffffffffffffffffffffffffffff1673ffffffffffffffffffffffffffffffffffffffff16815260200190815260200160002060006101000a81548160ff0219169083151502179055508173ffffffffffffffffffffffffffffffffffffffff168373ffffffffffffffffffffffffffffffffffffffff167f17307eab39ab6107e8899845ad3d59bd9653f200f220920489ca2b5937696c31836040516126e391906137c0565b60405180910390a3505050565b6126fb848484611e76565b612707848484846129cc565b612746576040517f08c379a000000000000000000000000000000000000000000000000000000000815260040161273d90613838565b60405180910390fd5b50505050565b606061275782611cd5565b600060066000848152602001908152602001600020805461277790613d78565b80601f01602080910402602001604051908101604052809291908181526020018280546127a390613d78565b80156127f05780601f106127c5576101008083540402835291602001916127f0565b820191906000526020600020905b8154815290600101906020018083116127d357829003601f168201915b505050505090506000612801612b63565b905060008151141561281757819250505061285a565b60008251111561284c5780826040516020016128349291906136c0565b6040516020818303038152906040529250505061285a565b61285584612b7a565b925050505b919050565b60008073ffffffffffffffffffffffffffffffffffffffff1661288183612402565b73ffffffffffffffffffffffffffffffffffffffff1614159050919050565b60018111156129c057600073ffffffffffffffffffffffffffffffffffffffff168473ffffffffffffffffffffffffffffffffffffffff16146129345780600360008673ffffffffffffffffffffffffffffffffffffffff1673ffffffffffffffffffffffffffffffffffffffff168152602001908152602001600020600082825461292c9190613c69565b925050819055505b600073ffffffffffffffffffffffffffffffffffffffff168373ffffffffffffffffffffffffffffffffffffffff16146129bf5780600360008573ffffffffffffffffffffffffffffffffffffffff1673ffffffffffffffffffffffffffffffffffffffff16815260200190815260200160002060008282546129b79190613b88565b925050819055505b5b50505050565b50505050565b60006129ed8473ffffffffffffffffffffffffffffffffffffffff16612be2565b15612b56578373ffffffffffffffffffffffffffffffffffffffff1663150b7a02612a16611d20565b8786866040518563ffffffff1660e01b8152600401612a38949392919061374b565b602060405180830381600087803b158015612a5257600080fd5b505af1925050508015612a8357506040513d601f19601f82011682018060405250810190612a80919061320c565b60015b612b06573d8060008114612ab3576040519150601f19603f3d011682016040523d82523d6000602084013e612ab8565b606091505b50600081511415612afe576040517f08c379a0000000000000000000000000000000000000000000000000000000008152600401612af590613838565b60405180910390fd5b805181602001fd5b63150b7a0260e01b7bffffffffffffffffffffffffffffffffffffffffffffffffffffffff1916817bffffffffffffffffffffffffffffffffffffffffffffffffffffffff191614915050612b5b565b600190505b949350505050565b606060405180602001604052806000815250905090565b6060612b8582611cd5565b6000612b8f612b63565b90506000815111612baf5760405180602001604052806000815250612bda565b80612bb984612c05565b604051602001612bca9291906136c0565b6040516020818303038152906040525b915050919050565b6000808273ffffffffffffffffffffffffffffffffffffffff163b119050919050565b606060006001612c1484612cdd565b01905060008167ffffffffffffffff811115612c3357612c32613f0f565b5b6040519080825280601f01601f191660200182016040528015612c655781602001600182028036833780820191505090505b509050600082602001820190505b600115612cd2578080600190039150507f3031323334353637383961626364656600000000000000000000000000000000600a86061a8153600a8581612cbc57612cbb613e53565b5b0494506000851415612ccd57612cd2565b612c73565b819350505050919050565b600080600090507a184f03e93ff9f4daa797ed6e38ed64bf6a1f0100000000000000008310612d3b577a184f03e93ff9f4daa797ed6e38ed64bf6a1f0100000000000000008381612d3157612d30613e53565b5b0492506040810190505b6d04ee2d6d415b85acef81000000008310612d78576d04ee2d6d415b85acef81000000008381612d6e57612d6d613e53565b5b0492506020810190505b662386f26fc100008310612da757662386f26fc100008381612d9d57612d9c613e53565b5b0492506010810190505b6305f5e1008310612dd0576305f5e1008381612dc657612dc5613e53565b5b0492506008810190505b6127108310612df5576127108381612deb57612dea613e53565b5b0492506004810190505b60648310612e185760648381612e0e57612e0d613e53565b5b0492506002810190505b600a8310612e27576001810190505b80915050919050565b828054612e3c90613d78565b90600052602060002090601f016020900481019282612e5e5760008555612ea5565b82601f10612e7757805160ff1916838001178555612ea5565b82800160010185558215612ea5579182015b82811115612ea4578251825591602001919060010190612e89565b5b509050612eb29190612eb6565b5090565b5b80821115612ecf576000816000905550600101612eb7565b5090565b6000612ee6612ee184613ad8565b613ab3565b905082815260208101848484011115612f0257612f01613f43565b5b612f0d848285613d36565b509392505050565b6000612f28612f2384613b09565b613ab3565b905082815260208101848484011115612f4457612f43613f43565b5b612f4f848285613d36565b509392505050565b600081359050612f6681614404565b92915050565b600081359050612f7b8161441b565b92915050565b600081359050612f9081614432565b92915050565b600081519050612fa581614432565b92915050565b600082601f830112612fc057612fbf613f3e565b5b8135612fd0848260208601612ed3565b91505092915050565b600082601f830112612fee57612fed613f3e565b5b8135612ffe848260208601612f15565b91505092915050565b60008135905061301681614449565b92915050565b60006020828403121561303257613031613f4d565b5b600061304084828501612f57565b91505092915050565b600080604083850312156130605761305f613f4d565b5b600061306e85828601612f57565b925050602061307f85828601612f57565b9150509250929050565b6000806000606084860312156130a2576130a1613f4d565b5b60006130b086828701612f57565b93505060206130c186828701612f57565b92505060406130d286828701613007565b9150509250925092565b600080600080608085870312156130f6576130f5613f4d565b5b600061310487828801612f57565b945050602061311587828801612f57565b935050604061312687828801613007565b925050606085013567ffffffffffffffff81111561314757613146613f48565b5b61315387828801612fab565b91505092959194509250565b6000806040838503121561317657613175613f4d565b5b600061318485828601612f57565b925050602061319585828601612f6c565b9150509250929050565b600080604083850312156131b6576131b5613f4d565b5b60006131c485828601612f57565b92505060206131d585828601613007565b9150509250929050565b6000602082840312156131f5576131f4613f4d565b5b600061320384828501612f81565b91505092915050565b60006020828403121561322257613221613f4d565b5b600061323084828501612f96565b91505092915050565b60006020828403121561324f5761324e613f4d565b5b600061325d84828501613007565b91505092915050565b6000806040838503121561327d5761327c613f4d565b5b600061328b85828601613007565b925050602061329c85828601612f57565b9150509250929050565b600080604083850312156132bd576132bc613f4d565b5b60006132cb85828601613007565b925050602083013567ffffffffffffffff8111156132ec576132eb613f48565b5b6132f885828601612fd9565b9150509250929050565b61330b81613c9d565b82525050565b61331a81613caf565b82525050565b600061332b82613b3a565b6133358185613b50565b9350613345818560208601613d45565b61334e81613f52565b840191505092915050565b61336281613d24565b82525050565b600061337382613b45565b61337d8185613b6c565b935061338d818560208601613d45565b61339681613f52565b840191505092915050565b60006133ac82613b45565b6133b68185613b7d565b93506133c6818560208601613d45565b80840191505092915050565b60006133df602d83613b6c565b91506133ea82613f63565b604082019050919050565b6000613402603283613b6c565b915061340d82613fb2565b604082019050919050565b6000613425602683613b6c565b915061343082614001565b604082019050919050565b6000613448602583613b6c565b915061345382614050565b604082019050919050565b600061346b601c83613b6c565b91506134768261409f565b602082019050919050565b600061348e601683613b6c565b9150613499826140c8565b602082019050919050565b60006134b1601083613b6c565b91506134bc826140f1565b602082019050919050565b60006134d4601983613b6c565b91506134df8261411a565b602082019050919050565b60006134f7601483613b6c565b915061350282614143565b602082019050919050565b600061351a602483613b6c565b91506135258261416c565b604082019050919050565b600061353d601983613b6c565b9150613548826141bb565b602082019050919050565b6000613560602983613b6c565b915061356b826141e4565b604082019050919050565b6000613583602e83613b6c565b915061358e82614233565b604082019050919050565b60006135a6601483613b6c565b91506135b182614282565b602082019050919050565b60006135c9602083613b6c565b91506135d4826142ab565b602082019050919050565b60006135ec602083613b6c565b91506135f7826142d4565b602082019050919050565b600061360f601883613b6c565b915061361a826142fd565b602082019050919050565b6000613632602183613b6c565b915061363d82614326565b604082019050919050565b6000613655601983613b6c565b915061366082614375565b602082019050919050565b6000613678600083613b61565b91506136838261439e565b600082019050919050565b600061369b603d83613b6c565b91506136a6826143a1565b604082019050919050565b6136ba81613d1a565b82525050565b60006136cc82856133a1565b91506136d882846133a1565b91508190509392505050565b60006136ef8261366b565b9150819050919050565b600060208201905061370e6000830184613302565b92915050565b60006060820190506137296000830186613302565b6137366020830185613302565b61374360408301846136b1565b949350505050565b60006080820190506137606000830187613302565b61376d6020830186613302565b61377a60408301856136b1565b818103606083015261378c8184613320565b905095945050505050565b60006040820190506137ac6000830185613302565b6137b960208301846136b1565b9392505050565b60006020820190506137d56000830184613311565b92915050565b60006020820190506137f06000830184613359565b92915050565b600060208201905081810360008301526138108184613368565b905092915050565b60006020820190508181036000830152613831816133d2565b9050919050565b60006020820190508181036000830152613851816133f5565b9050919050565b6000602082019050818103600083015261387181613418565b9050919050565b600060208201905081810360008301526138918161343b565b9050919050565b600060208201905081810360008301526138b18161345e565b9050919050565b600060208201905081810360008301526138d181613481565b9050919050565b600060208201905081810360008301526138f1816134a4565b9050919050565b60006020820190508181036000830152613911816134c7565b9050919050565b60006020820190508181036000830152613931816134ea565b9050919050565b600060208201905081810360008301526139518161350d565b9050919050565b6000602082019050818103600083015261397181613530565b9050919050565b6000602082019050818103600083015261399181613553565b9050919050565b600060208201905081810360008301526139b181613576565b9050919050565b600060208201905081810360008301526139d181613599565b9050919050565b600060208201905081810360008301526139f1816135bc565b9050919050565b60006020820190508181036000830152613a11816135df565b9050919050565b60006020820190508181036000830152613a3181613602565b9050919050565b60006020820190508181036000830152613a5181613625565b9050919050565b60006020820190508181036000830152613a7181613648565b9050919050565b60006020820190508181036000830152613a918161368e565b9050919050565b6000602082019050613aad60008301846136b1565b92915050565b6000613abd613ace565b9050613ac98282613daa565b919050565b6000604051905090565b600067ffffffffffffffff821115613af357613af2613f0f565b5b613afc82613f52565b9050602081019050919050565b600067ffffffffffffffff821115613b2457613b23613f0f565b5b613b2d82613f52565b9050602081019050919050565b600081519050919050565b600081519050919050565b600082825260208201905092915050565b600081905092915050565b600082825260208201905092915050565b600081905092915050565b6000613b9382613d1a565b9150613b9e83613d1a565b9250827fffffffffffffffffffffffffffffffffffffffffffffffffffffffffffffffff03821115613bd357613bd2613e24565b5b828201905092915050565b6000613be982613d1a565b9150613bf483613d1a565b925082613c0457613c03613e53565b5b828204905092915050565b6000613c1a82613d1a565b9150613c2583613d1a565b9250817fffffffffffffffffffffffffffffffffffffffffffffffffffffffffffffffff0483118215151615613c5e57613c5d613e24565b5b828202905092915050565b6000613c7482613d1a565b9150613c7f83613d1a565b925082821015613c9257613c91613e24565b5b828203905092915050565b6000613ca882613cfa565b9050919050565b60008115159050919050565b60007fffffffff0000000000000000000000000000000000000000000000000000000082169050919050565b6000819050613cf5826143f0565b919050565b600073ffffffffffffffffffffffffffffffffffffffff82169050919050565b6000819050919050565b6000613d2f82613ce7565b9050919050565b82818337600083830152505050565b60005b83811015613d63578082015181840152602081019050613d48565b83811115613d72576000848401525b50505050565b60006002820490506001821680613d9057607f821691505b60208210811415613da457613da3613eb1565b5b50919050565b613db382613f52565b810181811067ffffffffffffffff82111715613dd257613dd1613f0f565b5b80604052505050565b6000613de682613d1a565b91507fffffffffffffffffffffffffffffffffffffffffffffffffffffffffffffffff821415613e1957613e18613e24565b5b600182019050919050565b7f4e487b7100000000000000000000000000000000000000000000000000000000600052601160045260246000fd5b7f4e487b7100000000000000000000000000000000000000000000000000000000600052601260045260246000fd5b7f4e487b7100000000000000000000000000000000000000000000000000000000600052602160045260246000fd5b7f4e487b7100000000000000000000000000000000000000000000000000000000600052602260045260246000fd5b7f4e487b7100000000000000000000000000000000000000000000000000000000600052603260045260246000fd5b7f4e487b7100000000000000000000000000000000000000000000000000000000600052604160045260246000fd5b600080fd5b600080fd5b600080fd5b600080fd5b6000601f19601f8301169050919050565b7f4552433732313a2063616c6c6572206973206e6f7420746f6b656e206f776e6560008201527f72206f7220617070726f76656400000000000000000000000000000000000000602082015250565b7f4552433732313a207472616e7366657220746f206e6f6e20455243373231526560008201527f63656976657220696d706c656d656e7465720000000000000000000000000000602082015250565b7f4f776e61626c653a206e6577206f776e657220697320746865207a65726f206160008201527f6464726573730000000000000000000000000000000000000000000000000000602082015250565b7f4552433732313a207472616e736665722066726f6d20696e636f72726563742060008201527f6f776e6572000000000000000000000000000000000000000000000000000000602082015250565b7f4552433732313a20746f6b656e20616c7265616479206d696e74656400000000600082015250565b7f526571756972656420746f20686176652066756e647300000000000000000000600082015250565b7f50726963652063616e2774206265203000000000000000000000000000000000600082015250565b7f73656c6c6572206973206e6f74206f776e6572206f6620496400000000000000600082015250565b7f4661696c656420746f2073656e64204574686572000000000000000000000000600082015250565b7f4552433732313a207472616e7366657220746f20746865207a65726f2061646460008201527f7265737300000000000000000000000000000000000000000000000000000000602082015250565b7f4552433732313a20617070726f766520746f2063616c6c657200000000000000600082015250565b7f4552433732313a2061646472657373207a65726f206973206e6f74206120766160008201527f6c6964206f776e65720000000000000000000000000000000000000000000000602082015250565b7f45524337323155524953746f726167653a2055524920736574206f66206e6f6e60008201527f6578697374656e7420746f6b656e000000000000000000000000000000000000602082015250565b7f696e73737566696369656e7420616d6d6f756e74000000000000000000000000600082015250565b7f4552433732313a206d696e7420746f20746865207a65726f2061646472657373600082015250565b7f4f776e61626c653a2063616c6c6572206973206e6f7420746865206f776e6572600082015250565b7f4552433732313a20696e76616c696420746f6b656e2049440000000000000000600082015250565b7f4552433732313a20617070726f76616c20746f2063757272656e74206f776e6560008201527f7200000000000000000000000000000000000000000000000000000000000000602082015250565b7f7573657220646f65736e2774206f776e20746865206974656d00000000000000600082015250565b50565b7f4552433732313a20617070726f76652063616c6c6572206973206e6f7420746f60008201527f6b656e206f776e6572206f7220617070726f76656420666f7220616c6c000000602082015250565b6004811061440157614400613e82565b5b50565b61440d81613c9d565b811461441857600080fd5b50565b61442481613caf565b811461442f57600080fd5b50565b61443b81613cbb565b811461444657600080fd5b50565b61445281613d1a565b811461445d57600080fd5b5056fea26469706673582212207acc13237a7bcad27ccc87d4afd08e2e95f9a41b047ece4432851aedaf929af464736f6c63430008070033",
    "linkReferences": {},
    "deployedLinkReferences": {}
}